:020000040800F2
:10000000F00500209D0100088D190008A1150008C9
:100010003D190008A9020008DB1E000800000000CE
:10002000000000000000000000000000451A000869
:100030004903000800000000F9190008471A0008E9
:10004000B7010008B7010008B7010008B7010008B0
:10005000B7010008B7010008B7010008B7010008A0
:10006000B7010008B7010008B7010008B701000890
:10007000B7010008B7010008B7010008B701000880
:10008000B7010008B7010008B7010008B701000870
:10009000AD020008B7010008B70100084D030008D1
:1000A000B7010008B7010008B7010008B701000850
:1000B000F11A0008AD1B0008B7010008B7010008DD
:1000C000B7010008B7010008B7010008B701000830
:1000D000B7010008B7010008B7010008B701000820
:1000E000B7010008B7010008B7010008B701000810
:1000F000B7010008B7010008B7010008B701000800
:10010000B7010008B7010008B7010008B7010008EF
:10011000B7010008B7010008B7010008B7010008DF
:10012000B7010008B7010008B7010008B7010008CF
:10013000B7010008B7010008B7010008B7010008BF
:10014000B7010008B7010008B7010008B7010008AF
:10015000B7010008B7010008B7010008B70100089F
:10016000B7010008B7010008B7010008B70100088F
:10017000B7010008B7010008B7010008000000003F
:10018000B7010008B7010008DFF80CD000F07AF8DA
:10019000004800471D1F0008F00500200648804762
:1001A00006480047FEE7FEE7FEE7FEE7FEE7FEE75C
:1001B000FEE7FEE7FEE7FEE7D51A00088901000822
:1001C0002DE9F05F0546002092469B46884606468C
:1001D000814640241BE0284641464746224600F01F
:1001E00041F853465A46C01A914110D31146184659
:1001F000224600F028F82D1A67EB01084F462246E8
:100200000120002100F01FF817EB00094E41201ECD
:10021000A4F10104DFDC484631462A464346BDE8E6
:10022000F09FD2B201E000F8012B491EFBD27047CB
:100230000022F6E710B513460A4604461946FFF7B2
:10024000F0FF204610BD202A04DB203A00FA02F11C
:10025000002070479140C2F1200320FA03F31943B4
:1002600090407047202A04DB203A21FA02F0002156
:10027000704721FA02F3D040C2F1200291400843B6
:1002800019467047064C074D06E0E06840F0010350
:1002900094E8070098471034AC42F6D3FFF778FF94
:1002A000901F0008B01F0008FEE7000010B50848C6
:1002B00000F014F807480068A0F50071013905D175
:1002C000BDE810400249044801F06CB910BD0000BF
:1002D00028000020A8010020DC0100200346024A7B
:1002E0000021024800F036B9A8010020700000206B
:1002F000064B0822186000209860C3E903021875B5
:100300000A4601230149024800F039B8C40100201F
:100310007000002010B58AB000210122CDE906123C
:100320000E2300910191029109930391054C0368FA
:10033000A34201D1059104916946089200F084F826
:100340000AB010BD0064004070470000014917204A
:1003500008607047143C0140704790F82020012A43
:1003600007D0022A05D0416A41F480214162012070
:100370007047006842690A43426100207047F0B547
:1003800090F820500468A468012D05D0022D03D0F8
:10039000416A41F4802153E014F0406F01D1E5003F
:1003A0004BD5C4F30164022C03D9416A41F4000126
:1003B00046E00125A5401D608D684FF4C0739DB1D6
:1003C000CE6835434E6845EAC605066803EB041758
:1003D000F5514FF4C275076805EB04150E697E519F
:1003E000097D012905D009E00E88CD6845EA46550A
:1003F000EBE701684E5946F480764E511179D2F8F8
:1004000005504FF4C67641EA0525016806EB04164F
:100410008D511178D2F801204FF4C47541EA0221C0
:10042000026805EB04155151006803EB04114258B2
:1004300042F0010242500020F0BD416A41F4001137
:1004400041620120F0BD000010B590F82020012A83
:1004500007D0022A05D0416A41F48021416201207F
:1004600010BD3B48D0F8002242F00102C0F8002243
:10047000D0F8002222F47C52C0F80022D0F80022EA
:100480004B6A42EA0322C0F800220A7D02F01F03F1
:1004900001229A40D0F81C329343C0F81C32CB6939
:1004A000B3B9D0F80C329343C0F80C328C894B6846
:1004B00064F31F434C6900EBC404C4F840320C8958
:1004C0000B6864F31F434C6900EBC404C4F8443266
:1004D000CB69012B16D1D0F80C321343C0F80C3283
:1004E0000C884B6864F31F434C6900EBC404C4F8E8
:1004F00040320C89CB6864F31F434C6900EBC404A1
:10050000C4F844328B69002BD0F804320ED0134368
:10051000C0F804320B69002BD0F8143208D0134312
:10052000C0F81432096A012904D008E09343EFE7C8
:100530009343F5E7D0F81C121143C0F81C12D0F811
:10054000001221F00101C0F80012002010BD0000CF
:100550000064004030B590F82040012C05D0022CFA
:1005600003D0416A41F480215DE00468002955D040
:100570002469A40754D04FF4D874056804EB01141F
:100580002D5915F00405956005682D594ED0ED08DC
:10059000556005682C5904F00204D4604FF4DA74F5
:1005A000056804EB01142D5905F00F051561056868
:1005B0002D59C5F30725956105682C59240C546104
:1005C0004FF4DC72046802EB0112A4581C7004683A
:1005D000A458240A5C700468A458240C9C70046815
:1005E000A258120EDA704FF4DE72046802EB0112A8
:1005F000A4581C710468A458240A5C710468A458A7
:10060000240C9C710468A258120EDA71006881B142
:10061000016941F020010161002030BDE468A8E7D4
:10062000416A41F400114162012030BD6D0D156039
:10063000AFE7C16841F02001C160EDE770B504008B
:1006400003D094F8200010B104E0012070BD2046D2
:1006500000F082F82068016821F00201016000F0DA
:10066000C1F90546052604E000F0BCF9401B0A2844
:1006700011D8206840688007F6D42068016841F0EE
:100680000101016000F0AEF905460BE000F0AAF9A7
:10069000401B0A2806D9606A40F40030606284F882
:1006A0002060D2E720684068C007EFD0207E012894
:1006B000206801683DD021F080010160607E012842
:1006C0002068016838D021F040010160A07E012837
:1006D0002068016833D021F020010160E07E01280C
:1006E000206801682ED041F010010160207F0128B0
:1006F0002068016829D021F008010160607F01288D
:100700002068016824D021F004010160D4E90201CD
:100710000843D4E90412114308436168491E0843A1
:100720002168C86100206062012084F82000002058
:1007300070BD41F08001C0E741F04001C5E741F0E4
:100740002001CAE721F01001CFE741F00801D4E70A
:1007500041F00401D9E7000010B586B00446142129
:100760006846FFF765FD18492068884229D1174877
:100770000021026842F000720260006800F0007020
:10078000059012481038026842F0020202600068C8
:1007900000F0020005904FF4407000900220CDE977
:1007A000010103200390092004906946084800F0E5
:1007B0003DF800220121142000F082F9142000F0FD
:1007C00071F906B010BD00000064004040380240DE
:1007D0000004024070B5044690F82000012804D0BF
:1007E000606A40F40020606218E0022084F8200073
:1007F0002068016821F00101016000F0F3F805466E
:100800000EE000BF00F0EEF8401B0A2808D9606A2D
:1008100040F400306062052084F82000012070BDA3
:1008200020684068C007EDD1606270BD2DE9F84FC7
:1008300000224FF0010803254FF00F0E0B6808FA55
:1008400002F42340A3426ED14E68012E05D0022E41
:1008500003D0112E01D0122E12D186684FEA420C1D
:1008600005FA0CF7BE43CF6807FA0CF737438760E9
:100870004668A6430C79C4F30014944034434460A2
:10088000C668570005FA07FC8C6826EA0C06BC40CF
:100890003443C4604C68022C01D0122C13D1D4080C
:1008A00000EB8404A346D4F8209054074FEAD46A9E
:1008B0000EFA0AF629EA06090E6906FA0AF646EA67
:1008C0000906CBF8206006680C7926EA0C0604F0CD
:1008D0000304BC40344304604C68E40065D5364CE6
:1008E000266846F480462660246822F0030604F455
:1008F00080440094314C3444A446D4F80848960708
:10090000370F0EFA07F6B4432D4EB04201D1002640
:1009100024E02C4EB04201D101261FE02A4EB04205
:1009200002D102261AE040E0284EB04201D103264F
:1009300014E0274EB04201D104260FE0254EB0420C
:1009400001D105260AE0244EB04201D1062605E079
:10095000224EB04201D1072600E00826BE402643C1
:10096000CCF808681E4E34684F689C43FF0300D5DE
:100970001C4334601A4C241D26684F689E43BF03F5
:1009800000D51E432660164E083634684F689C43D7
:10099000FF0200D51C433460114E0C3634684F689A
:1009A0009C43BF0200D51C433460521C102AFFF444
:1009B00045AFBDE8F88F00004438024000300140E8
:1009C000000002400004024000080240000C024007
:1009D000001002400014024000180240001C0240B7
:1009E000003C01400148806870470000180000206A
:1009F0000248816802781144816070471800002025
:100A00000B4810B5016841F400710160016841F4C0
:100A100080610160016841F480710160032000F091
:100A20006FF8002000F006F800F024F8002010BD58
:100A3000003C024070B50D4D04464FF47A712878A1
:100A4000B1FBF0F00A490968B1FBF0F000F056FB89
:100A500048B9102C07D200222146501E00F030F871
:100A600000206C6070BD012070BD000018000020E7
:100A7000240000200A4808B5016841F48041016063
:100A8000006800F4804000900548001F016841F0B4
:100A900080510160006800F08050009008BD0000A7
:100AA00044380240002809DB00F01F020121914078
:100AB0004009800000F1E020C0F8001170470000FC
:100AC000F0B40E4B1B680C46C3F30223C3F10705B9
:100AD000042D00D90425191D072901D2002300E0A7
:100AE000DB1E012606FA05F1491E214099409E4071
:100AF000761E16403143F0BC01F0F0B90CED00E079
:100B0000064900F0070208684FF6FF03184040EA64
:100B10000220034A10430860704700000CED00E01B
:100B20000000FA052DE9F0470E46050065D0DFF814
:100B30001481D8F80000F7B200F00F00B04207D2DD
:100B400088F80070D8F8000000F00F00B04254D1CF
:100B500028683D4C810712D5400703D5206840F432
:100B6000E05020602878000703D5206840F46040FA
:100B700020602068A96820F0F000084320602878F1
:100B8000C0072DD0304968680839012812D00228E2
:100B900013D0032811D00968890700292DDA2168AC
:100BA00021F0030101432160FFF71CFF814641F260
:100BB000883A0EE009688903EFE709688901ECE7E4
:100BC000FFF710FFA0EB0901514502D90320BDE852
:100BD000F0872068696800F00C00B0EB810FEFD15E
:100BE000D8F80010404601F00F01B14207D9077054
:100BF000006800F00F00B04201D00120E7E728783C
:100C0000400705D52068E96820F4E05008432060DB
:100C10002878000706D52068296920F4604040EA5A
:100C2000C100206000F018F82168084AC1F30311E0
:100C3000515CC8400649086006480068FFF7FAFEA4
:100C40000020C4E7003C024008380240801F000832
:100C5000240000201C000020154810B5006810F08A
:100C60000C02144813D01449042A0FD0082A0ED1BC
:100C70000F4C241F2268236802F03F025B0207D555
:100C80002068C0F38810A0FB010106E0084610BDF3
:100C90002168C1F38811A1FB00010023FFF790FA3E
:100CA0002168C1F30141491C4900B0FBF1F010BDBE
:100CB000083802400024F40040787D012DE9F84F07
:100CC00004006ED02078DFF83C93C007A9F104053A
:100CD0004AD009F104000168C1F38101012908D05B
:100CE0000068C0F3810002280AD1D9F80000400250
:100CF00006D52868800337D560680028E1D033E046
:100D00006068B0F5803F10D0B0F5A02F286810D0F3
:100D100020F480302860286820F4802028606068F3
:100D2000A8B1FFF75FFE06460DE0286840F480306A
:100D3000F4E740F480202860F7E700BFFFF752FE99
:100D4000801B642873D828688003F7D50CE0FFF770
:100D500049FE064605E000BFFFF744FE801B6428FD
:100D6000F0D828688003F7D42078DFF89C828007C9
:100D70004FF0000A3ED5A348001D016811F00C0F8A
:100D800008D00068C0F3810002280BD1D9F8000018
:100D9000400207D42868800716D5E068012800D1F2
:100DA00012E02BE1E068B8B10120C8F80000FFF7BD
:100DB00019FE064605E000BFFFF714FE801B02285F
:100DC000C0D828688007F7D52868216920F0F80086
:100DD00040EAC10028600DE0C8F800A0FFF702FE5D
:100DE000064604E0FFF7FEFD801B02281FD8286896
:100DF0008007F7D42078000722D5824E83486169A6
:100E0000703671B101210160FFF7ECFD074604E087
:100E1000FFF7E8FDC01B022809D830688007F7D526
:100E20000EE0C0F800A0FFF7DDFD074605E082E018
:100E3000FFF7D8FDC01B02287DD830688007F7D4A3
:100E40002078400768D5DFF8BCB100270BF13C0BD8
:100E5000DBF80000C0000BD4DBF8001041F080513B
:100E6000CBF80010DBF80000012700F08050009064
:100E7000674E3068C00510D4306840F48070306030
:100E8000FFF7B0FD009005E0FFF7ACFD0099401AB8
:100E9000022850D83068C005F6D55A4EA0686C3686
:100EA00001280FD00528306810D020F001003060F4
:100EB000306820F004003060A068B8B1FFF792FD00
:100EC00000900FE0306840F00100F4E740F00400CB
:100ED0003060F7E7FFF786FD0099411A41F288304C
:100EE000814266D830688007F4D50EE0FFF77AFDBE
:100EF000009007E0FFF776FD0099411A41F2883033
:100F0000814256D830688007F4D42FB1DBF8001046
:100F100021F08051CBF80010A069C8B33949091DF0
:100F20000968C1F3810102294AD00228504607D03E
:100F3000C8F8600000E03CE0FFF754FD04463BE0E9
:100F40004746C8F86000FFF74DFD064605E000BFC4
:100F5000FFF748FD801B02282BD828688001F7D4B2
:100F6000D4E907010843A16A2A4A490802EB014172
:100F7000626A41EA8211084394F82C1040EA016148
:100F8000C9F8001001203866FFF72CFD044606E082
:100F900036E000BFFFF726FD001B022809D82868AD
:100FA0008001F7D52CE000BFFFF71CFD001B0228D5
:100FB00002D90320BDE8F88F28688001F4D41FE02F
:100FC0000128F7D0D9F80000E26900F480019142CD
:100FD00014D1226A00F03F0191420FD147F6C0714F
:100FE000626A0140914209D1A26A00F44031914203
:100FF00004D1E16A00F07060884201D00120D9E795
:101000000020D7E70438024000004742800E4742E4
:10101000007000400000FFFF2DE9F0470446007912
:1010200000278A4601280ED00125257160794FF0EE
:101030000009012809D00420A060012784F8049049
:101040003846BDE8F0870220FBE74FF0020884F83D
:101050000580FFF7C7FC06460CE000BFFFF7C2FCA7
:10106000801B022806D96571C4F8088084F80490B2
:101070000120E6E720684068C043C007EED1206841
:101080008068E060CAF800006571D7E710B50446D3
:1010900000F10C01FFF7C0FF08B1002010BDE068AF
:1010A00010BD70B5040003D06079002510B105E0D3
:1010B000012070BD2571204600F00CF802206071FF
:1010C0002068016841F00401016001206071A560A1
:1010D000002070BD08B500680649884208D106485E
:1010E000016841F040010160006800F0400000909C
:1010F00008BD0000000806503438024010B5401EFC
:10110000B0F1807F01D3012010BD4FF0E024606179
:101110000F21601700F0E2FE0020A061072020618F
:10112000002010BD10B590F83C20012A22D00122E9
:1011300080F83C20CA688C6822F4407222434C68D4
:1011400022F4806222430C6822F4006222430C697C
:1011500022F4805222434C6922F400522243C9698E
:10116000002322F480420A4301684A6480F83C303C
:10117000002010BD022010BD70B590F83C20012A5F
:1011800032D0012480F83C40022280F83D200368E0
:101190005A689D6822F070060A6832435A60134B01
:1011A00002689A4214D0B2F1804F11D0104B9A428B
:1011B0000ED0104B9A420BD00F4B9A4208D00F4BD7
:1011C0009A4205D00E4B9A4202D00E4B9A4204D15D
:1011D000496825F080031943916080F83D40002163
:1011E00080F83C10084670BD022070BD0000014030
:1011F0000004004000080040000C004000040140D2
:10120000004001400018004010B5040003D094F8DD
:101210003D0010B107E0012010BD002084F83C0023
:10122000204600F00DF8022084F83D00211D2068C2
:1012300000F0EAFC012084F83D00002010BD000011
:1012400008B501682048814208D12048016841F072
:1012500001010160006800F0010032E01B48001F3E
:10126000B1F1804F14D01A4A914220D1016841F067
:10127000020101600068002200F0020000900221DB
:101280001D20FFF71DFC1D20BDE80840FFF70ABC2C
:10129000016841F0010101600068002200F00100D6
:1012A000009001211C20FFF70BFC1C20ECE7094AF1
:1012B000914207D1016841F004010160006800F02B
:1012C0000400009008BD00000000014044380240C6
:1012D00000040040000800400168CA6842F00102B2
:1012E000CA600068816801F00701062903D001681F
:1012F00041F0010101600020704770B5044690F88C
:101300003C00012817D0012584F83C50022084F8C5
:101310003D002068826822F0770222F47F428260DA
:101320000868502830D00DDC20284DD005DC98B35B
:1013300010283BD148E0022070BD302844D040281E
:1013400034D139E0602828D0702806D0B0F5805F0D
:101350002CD0B0F5005F29D10AE0CB68D1E901219A
:10136000206800F0C2FC2068816841F0770109E044
:10137000CB68D1E90121206800F0B7FC20688168C2
:1013800041F48041816011E0CA684968206800F03A
:1013900081FD5021206807E016E0CA68496820688E
:1013A00000F089FD6021206800F0A9FC84F83D5020
:1013B000002084F83C0070BDCA684968206800F0CD
:1013C00069FD40212068EFE7226801461046EBE7FF
:1013D00010B586B0044614216846FEF729FF23683D
:1013E000174C002117480222A34211D1036843F091
:1013F00010030360006800F01000059010020090D8
:10140000CDE901210120CDE9031069460E4812E023
:101410000E4CA34211D1036843F008030360006837
:1014200000F008000590A0140090CDE90121CDE95D
:10143000031269460648FFF7F9F906B010BD00002F
:101440000000014030380240001002400008004017
:10145000000C024070B5044690F83C000D4601288F
:101460000DD0012684F83C60022084F83D0042B192
:10147000042A18D0082A2AD00C2A4DD139E002209B
:1014800070BD206800F044FC2068816941F00801CB
:1014900081612068816921F004018161206881698E
:1014A0002A69114311E0206800F062FC206881691C
:1014B00041F4006181612068816921F4806181616A
:1014C000206881692A6941EA0221816124E020685B
:1014D00000F084FC2068C16941F00801C161206806
:1014E000C16921F00401C1612068C1692A69114301
:1014F00011E0206800F0A6FC2068C16941F4006199
:10150000C1612068C16921F48061C1612068C1693D
:101510002A6941EA0221C16184F83D60002084F813
:101520003C0070BD10B5040003D094F83D0010B12C
:1015300007E0012010BD002084F83C00204600F0A8
:101540000CF8022084F83D00211D206800F05CFBAF
:10155000012084F83D00002010BD704710B50446FE
:101560000068012200F0B4FB0B492068884202D0D9
:101570000A49884203D1416C41F40041416420682A
:10158000816801F00701062903D0016841F00101DB
:101590000160002010BD0000000001400004014077
:1015A000FEE700000A8852BA0280498849BA4180A1
:1015B0008188511A09B2B1F57A6F02DDC3885B1ECA
:1015C000C38011F57A6F02DAC188491CC180B0F975
:1015D0000610DFED070A02EB413100EE101A8160C0
:1015E000B8EEC00A20EE200A80ED030A8280704720
:1015F0000000343D0F4810B50D49016006214160DF
:1016000000214FF400328160C0E9031212014261EF
:10161000017641768176C176017701214177FFF726
:101620000DF8002803D0BDE81040FEF795BE10BDB0
:10163000006400407000002000B587B014216846A7
:10164000FEF7F6FD2248016841F080010160016863
:1016500001F080010591016841F01001016001680D
:1016600001F010010591016841F008010160016875
:1016700001F008010591016841F004010160016871
:1016800001F004010591016841F001010160016868
:1016900001F001010591016841F00201016000685B
:1016A000694600F0020005904FF4807000900948F0
:1016B0000190012002900848FFF7B8F80022114677
:1016C0001720FFF7FDF91720FFF7ECF907B000BD71
:1016D000303802400000211000080240074910B5D0
:1016E000054808600846FFF7DCFC002803D0BDE889
:1016F0001040FEF731BE10BD0008065098000020D3
:1017000010B596B000240F94109411941294139471
:101710001C2108A81494FEF78BFD20216846FEF7D3
:1017200087FD294827490160A721C0E9011444F633
:101730001F61C0E903148021C0E90541FFF764FD82
:1017400008B1FEF709FE4FF480500F900FA91E4814
:10175000FFF7D3FD08B1FEF7FFFD1B48FFF7E2FEE0
:1017600008B1FEF7F9FD139413A917481494FFF775
:1017700003FD08B1FEF7F0FD6020CDE908040A94EE
:101780000B940C940D94002208A90F480E94FFF7B7
:1017900061FE08B1FEF7E0FD00944FF40050CDE982
:1017A0000440029401940394694607480794FFF7A4
:1017B000B9FC08B1FEF7D0FD0348FFF709FE16B0EB
:1017C00010BD000000000140A800002010B586B048
:1017D00000241748009401940294039404944FF059
:1017E0008041059401605321C0E9011440F2CF719A
:1017F000C0E9031480218161FFF706FD08B1FEF7FF
:10180000ABFD4FF48050009069460948FFF775FD25
:1018100008B1FEF7A1FD049404A905480594FFF75B
:10182000ABFC002801D0FEF797FD06B010BD00000C
:10183000E800002010B586B00024184800940194F8
:1018400002940394049414490594016042F2CF0178
:10185000C0E9011441F28731C0E90314802181619C
:10186000FFF7D2FC08B1FEF777FD4FF480500090EF
:1018700069460A48FFF741FD08B1FEF76DFD049483
:1018800004A906480594FFF777FC002801D0FEF76D
:1018900063FD06B010BD00000004004028010020D8
:1018A00010B58EB000240794089409940A940B9400
:1018B0001C2168460C94FEF7BBFC1F481D490160C3
:1018C0005421C0E9011444F62061C0E903148021C9
:1018D0008161FFF799FC08B1FEF73EFD4FF480509F
:1018E000079007A91448FFF708FD08B1FEF734FD7B
:1018F0001148FFF717FE08B1FEF72EFD0B940BA958
:101900000D480C94FFF738FC08B1FEF725FD602068
:10191000CDE9000402940022694607480494FFF7C9
:1019200099FD08B1FEF718FD0348FFF751FD0EB011
:1019300010BD00000008004068010020FEE71CB553
:101940000C461188090A8DF8001013788DF80130C3
:101950005188090A8DF8021093788DF80330918828
:10196000090A8DF8041013798DF80530D188090A19
:101970008DF8061091798DF80710012801D001200B
:101980001CBD69462046FEF7B3FC1CBD704790EDB8
:10199000041A30EEC00A80ED051A80ED040AD0ED7D
:1019A000060A70EE801AC0ED061AD0ED030AF4EEB6
:1019B000E01AF1EE10FA01DDC0ED060AD0ED061ACC
:1019C000F1EE600AF4EEE01AF1EE10FA01D2C0ED89
:1019D000060AD0ED000AD0ED011A90ED062A60EE5D
:1019E000800A30EE410A90ED021A41EE820A41EE81
:1019F000000AC0ED070A70477047000070B5044642
:101A00000D460E48FFF742FB00EE100ADFED0C0A10
:101A1000281BB8EE400A60EE200A00EE100AB8EE6D
:101A2000C01A00EE104AB8EE400A00EE810ABCEE81
:101A3000C00A10EE100A80B270BD000098000020AD
:101A40000000802F7047FEF7D3BF000030B593B081
:101A500030216846FEF7ECFB14210CA8FEF7E8FBEA
:101A60001A480025016841F080510160006800F0CB
:101A7000805011901648016841F48041016000686F
:101A8000022400F480401190012000900004019095
:101A90008001CDE90640192008904FF4A870CDE9E7
:101AA000090407200B906846FFF708F90CA90F20DE
:101AB00081E831004FF4A0500F90E0021090052112
:101AC0000CA8FFF72FF813B030BD000040380240DB
:101AD000007000400548016841F47001016003494D
:101AE0004FF00060803908607047000088ED00E02A
:101AF000284910B54878E8BB087801281DD18888A6
:101B000043F27822424300EE102AF8EE400A91EDAB
:101B1000030AB4EE600AF1EE10FA06D0DFED1E0AF9
:101B200030EE200A81ED030A07E000220A704A80A5
:101B3000401C8880C888401CC880184C1848D1EDCB
:101B4000030A94ED030AFFF722FF1548D0ED070AB8
:101B5000B4F9020000EE100A1248B8EEC00AFFF70E
:101B600016FF10480B4990ED070ABDEEC00A10EEB3
:101B7000100A00E007E010310A4608804FF40071B7
:101B80000120FFF7DCFE08496FF0010009680861D9
:101B900010BD00000000002000002042DC010020F9
:101BA0003000002050000020E800002010B540F672
:101BB000C4114FF4FA70FFF721FF1049CB880A2BAC
:101BC00001D308220A814A880C89A24203D10C4C15
:101BD0002468606304E0641DA24201D10120087002
:101BE000142B02D2521C4A8001E000204880054993
:101BF0006FF001000968086110BD000000000020BE
:101C00006801002028010020F0B50268254C264D0F
:101C1000264E274F274B4FF0804CA04209D06045FD
:101C200007D0A84205D0B04203D0B84201D09842B4
:101C300004D122F0700E4A6842EA0E02A0421BD084
:101C4000604519D0A84217D0B04215D0B84213D081
:101C5000984211D0184DA8420ED0184DA8420BD072
:101C6000174DA84208D0174DA84205D0164DA842DE
:101C700002D0164DA84203D122F44075CA682A4307
:101C80004D6922F080022A4302608A68C2620A68B3
:101C90008262A04201D0984201D109690163012109
:101CA0004161F0BD00000140000400400008004018
:101CB000000C00400004014000400140004401408D
:101CC0000048014000180040001C00400020004077
:101CD00010B501F01F030121046A99408C4304628E
:101CE000016A9A401143016210BD10B5846842EA4E
:101CF000032224F47F440A432243826010BD826899
:101D000022F070020A4342F0070181607047000030
:101D1000F0B5026A22F001020262036A4268846935
:101D2000124E24F073050C682C4323F002058B68D7
:101D30002B430D4DA84201D0B04205D123F0080736
:101D4000CB683B4323F00403A84201D0B04205D145
:101D50004D6922F4407215438A692A4342608461C6
:101D6000496841630362F0BD000001400004014086
:101D7000F0B5026A22F010020262026A43688469C6
:101D80000D6824F4E64444EA05248D6822F020021C
:101D900042EA05120F4D104EA84201D0B04206D1C2
:101DA000CF6822F0800242EA071222F04002A842E5
:101DB00001D0B04207D14D6923F4406343EA850363
:101DC0008D6943EA850343608461496881630262E7
:101DD000F0BD00000000014000040140F0B5026ABF
:101DE00022F480720262026A4368C46922F40072BB
:101DF00024F073050C68124E2C438D6842EA0522CC
:101E00000E4DA84201D0B04206D1CF6822F4006244
:101E100042EA072222F48062A84201D0B04207D1F0
:101E20004D6923F4405343EA05138D6943EA0513D2
:101E30004360C4614968C1630262F0BD00000140B3
:101E40000004014030B5026A22F480520262046A42
:101E50004268C3690D6823F4E64343EA05238D68AD
:101E600024F4005444EA0534084DA84202D0084D39
:101E7000A84204D14D6922F4804242EA85124260B0
:101E8000C36149680164046230BD00000000014084
:101E90000004014010B5036A046A24F001040462DE
:101EA000846924F0F00444EA021423F00A020A438D
:101EB0008461026210BD10B5036A23F0100303624F
:101EC0008369046A23F4704343EA023224F0A003D6
:101ED00043EA01118261016210BDFEE70907090EA4
:101EE000002804DB00F1E02080F80014704700F0C7
:101EF0000F0000F1E02080F8141D704702E008C8D0
:101F0000121F08C1002AFAD170477047002001E073
:101F100001C1121F002AFBD170470000FEF770FDBF
:101F2000FFF794FDFFF788FBFFF764FBFFF74EFC1C
:101F3000FFF780FCFFF7B4FCFFF7E2FBFFF7CEFBF7
:101F40000B48FEF7E7F90A48FEF744FC022108486F
:101F5000FEF703FA1720FEF7A5FD0648FFF7BCF9C8
:101F60000548FFF7B9F900210448FFF7F7FAFEE743
:101F700070000020E80000202801002068010020F7
:101F80000000000000000000010203040607080929
:101F9000B01F00080000002070000000FC1E0008B8
:101FA0002020000870000020800500000C1F0008A1
:101FB000000000000100000012000000000000000E
:101FC0000000000000000000010000001000000000
:101FD000000000000024F4000000000000000000E9
:101FE0000000C040000000000000704100401C469E
:101FF00000000000000000000000000000000000E1
:1020000000002041000000000000803F00401C460E
:1020100000000000000000000000000000000000C0
:040000050800018965
:00000001FF
